{
  "contractName": "Draft",
  "abi": [
    {
      "constant": true,
      "inputs": [
        {
          "name": "",
          "type": "address"
        }
      ],
      "name": "superbowl_rings",
      "outputs": [
        {
          "name": "",
          "type": "uint256"
        }
      ],
      "payable": false,
      "stateMutability": "view",
      "type": "function",
      "signature": "0x2542609b"
    },
    {
      "constant": true,
      "inputs": [
        {
          "name": "",
          "type": "uint256"
        }
      ],
      "name": "team_owners",
      "outputs": [
        {
          "name": "",
          "type": "address"
        }
      ],
      "payable": false,
      "stateMutability": "view",
      "type": "function",
      "signature": "0x976b7b6b"
    },
    {
      "constant": false,
      "inputs": [
        {
          "name": "playerId",
          "type": "uint256"
        }
      ],
      "name": "draft",
      "outputs": [
        {
          "name": "",
          "type": "uint256"
        }
      ],
      "payable": false,
      "stateMutability": "nonpayable",
      "type": "function",
      "signature": "0x710cf1ed"
    },
    {
      "constant": true,
      "inputs": [],
      "name": "getOwners",
      "outputs": [
        {
          "name": "",
          "type": "address[32]"
        }
      ],
      "payable": false,
      "stateMutability": "view",
      "type": "function",
      "signature": "0xa0e67e2b"
    }
  ],
  "bytecode": "0x608060405234801561001057600080fd5b5061037a806100206000396000f3fe608060405260043610610062576000357c0100000000000000000000000000000000000000000000000000000000900463ffffffff1680632542609b14610067578063710cf1ed146100cc578063976b7b6b1461011b578063a0e67e2b14610196575b600080fd5b34801561007357600080fd5b506100b66004803603602081101561008a57600080fd5b81019080803573ffffffffffffffffffffffffffffffffffffffff1690602001909291905050506101e8565b6040518082815260200191505060405180910390f35b3480156100d857600080fd5b50610105600480360360208110156100ef57600080fd5b81019080803590602001909291905050506101ff565b6040518082815260200191505060405180910390f35b34801561012757600080fd5b506101546004803603602081101561013e57600080fd5b8101908080359060200190929190505050610274565b604051808273ffffffffffffffffffffffffffffffffffffffff1673ffffffffffffffffffffffffffffffffffffffff16815260200191505060405180910390f35b3480156101a257600080fd5b506101ab6102a9565b60405180826020800280838360005b838110156101d55780820151818401526020810190506101ba565b5050505090500191505060405180910390f35b602080528060005260406000206000915090505481565b60008082101580156102125750601f8211155b151561021d57600080fd5b3360008360208110151561022d57fe5b0160006101000a81548173ffffffffffffffffffffffffffffffffffffffff021916908373ffffffffffffffffffffffffffffffffffffffff160217905550819050919050565b60008160208110151561028357fe5b016000915054906101000a900473ffffffffffffffffffffffffffffffffffffffff1681565b6102b161032a565b6000602080602002604051908101604052809291908260208015610320576020028201915b8160009054906101000a900473ffffffffffffffffffffffffffffffffffffffff1673ffffffffffffffffffffffffffffffffffffffff16815260200190600101908083116102d6575b5050505050905090565b6104006040519081016040528060209060208202803883398082019150509050509056fea165627a7a723058201a2bfd1871e37f163de6fe0dfe8940c28b82ff900a306ada39b67f98831a63a40029",
  "source": "pragma solidity ^0.5.0;\n\ncontract Draft{\n\naddress[32] public team_owners;\n\n\n//mapping of SB rings\nmapping(address => uint) public superbowl_rings;\n\n\n\n\n//Draft a player\n\nfunction draft(uint playerId) public returns (uint){\n    require(playerId >= 0 && playerId <= 31);\n\n    team_owners[playerId] = msg.sender;\n\n    return playerId;\n}\n\n//Modifier to restrict trade only between team_owners\n\nmodifier onlyOwner(address _owner){\n    require(msg.sender == _owner);\n    _;\n}\n\n//retreiving the team team owners \nfunction getOwners() public view returns (address[32] memory){\n    return team_owners;\n}\n    \n\n}\n",
  "sourcePath": "/Users/ambrose/Desktop/blockchain/Fantasy_Football_chain/contracts/Draft.sol",
  "compiler": {
    "name": "solc",
    "version": "0.5.0+commit.1d4f565a.Emscripten.clang"
  },
  "schemaVersion": "3.0.1",
  "updatedAt": "2019-01-25T02:07:57.339Z",
  "devdoc": {
    "methods": {}
  },
  "userdoc": {
    "methods": {}
  }
}